:020000040800F2
:10000000E01F002001010008B1300008152C000895
:10001000AD300008430400084561000800000000FE
:100020000000000000000000000000007D36000815
:100030005504000800000000953400087F360008D1
:100040001B0100081B0100081B0100081B01000820
:100050001B0100081B0100081B0100081B01000810
:100060001B0100081B0100081B0100081B01000800
:100070001B0100081B0100081B0100081B010008F0
:100080001B0100081B0100081B0100081B010008E0
:100090007D5F00081B0100081B0100081B01000810
:1000A0001B010008613700081B0100081B01000844
:1000B0001B0100081B0100081B0100081B010008B0
:1000C0001B0100081B0100081B0100081B010008A0
:1000D0001B0100081B0100081B0100081B01000890
:1000E0001B0100081B0100081B010008DFF80CD0F1
:1000F00000F06AF900480047B1690008E01F0020DD
:100100000648804706480047FEE7FEE7FEE7FEE7B1
:10011000FEE7FEE7FEE7FEE7FEE7FEE70937000839
:10012000ED00000840EA01039B0703D009E008C97D
:10013000121F08C0042AFAD203E011F8013B00F8AC
:10014000013B521EF9D27047D2B201E000F8012BF8
:10015000491EFBD270470022F6E710B513460A4647
:1001600004461946FFF7F0FF204610BDF0B480EAC0
:100170000102D40F4200B2EB410F02D20246084600
:1001800011464A0042D0C30DDDB2C1F3C752AD1AC9
:10019000202D35DAC1F3160141F4000204B15242B8
:1001A000C5F1200602FA06F12A411044B3EBD05FF4
:1001B00023D0C4B1012DA0EBC35009DCF0BC4FF03B
:1001C000004202EAC352DBB200F5000000F0CDB8F5
:1001D000400000F1807000EBC350A0F1807040EA55
:1001E000D170490009E0490841EAC071A0EBC35051
:1001F00000F50000400800EBC350F0BC00F0ACB8C4
:100200006142012202EB4101001BF6E7F0BC70479E
:1002100081F00041AAE780F00040A7E780EA0102F0
:1002200010B502F00043400022D04A001FD0010E5A
:1002300001EB1261C0F35600C2F3560240F4000015
:1002400042F40002A0FB022000047F39140400D015
:10025000401C50EA124001D44000491EC2B20C06B4
:1002600004EBD010401C4008802A02D003E000209C
:1002700010BD20F00100002900DA0020184310BD55
:1002800030B480EA010202F0004530F0004221F073
:10029000004013D090B1C30DD40DC2F31601C0F3CA
:1002A0001600E41A41F4000140F400027D3491424A
:1002B00001D3641C00E04900002C02DA30BC0020AD
:1002C00070474FF400000023914201D3891A034381
:1002D00040084FEA4101F7D151B1914202D14FF0AC
:1002E000004105E002D24FF0010101E06FF0010191
:1002F00003EBC450284430BC00F02EB896230022F3
:10030000114600F032B820F00040C10DC0F31600D5
:1003100040F400007F2901DA00207047962903DCB1
:10032000C1F19601C8407047963988407047000077
:10033000002801DBC0F10040002901DBC1F10041D0
:1003400081427047002801DBC0F10040002901DB39
:10035000C1F10041884270470029A8BF7047401C86
:10036000490008BF20F00100704710B4B0FA80FCCB
:1003700000FA0CF050EA010404BF10BC704749B108
:10038000CCF1200421FA04F411FA0CF118BF012178
:1003900021430843A3EB0C01CB1D4FEA00614FEA58
:1003A000102042BF002010BC704700EBC350104427
:1003B0000029A4BF10BC7047401C490008BF20F0B2
:1003C000010010BC70470000064C074D06E0E068D5
:1003D00040F0010394E8070098471034AC42F6D38C
:1003E000FFF788FEAC700008CC70000870B58C1860
:1003F00010F8015B15F0070301D110F8013B2A1139
:1004000006D110F8012B03E010F8016B01F8016B25
:100410005B1EF9D12B0705D40023521E0DD401F821
:10042000013BFAE710F8013BCB1A921C03E013F8EA
:10043000015B01F8015B521EF9D5A142D8D300201F
:1004400070BD00BFFEE700207047002070470246E5
:10045000002070477047704730B504460D460022B3
:100460002946204600F002F830BD0000F0B50346F2
:10047000012500241148407A01281CDC00200F4E81
:10048000767A0E4FB8553846467A001D40F8263029
:10049000001F467A083082553E46707A461C7E72AE
:1004A000044604F1300008703A2048702F2088700C
:1004B0000020C87000252846F0BD0000D40B0020A5
:1004C00070B50A480468001D0568001D06683444BC
:1004D00054B108220649204602F09EFB042204493A
:1004E0001031284602F098FB70BD0000E8F7FF1FAE
:1004F0005600002070B5044600F0A6F906462546D1
:10050000681C10B104480078054400BF00F09CF955
:10051000801BA842FAD370BDB00000202DE9F84737
:100520000346002294466EE14FF0010808FA02F4F7
:10053000D1F8008008EA0400A0427DD1DFF8DCA2F7
:10054000D1F80480A8EB0A09D0453AD014DCB8F100
:10055000030F50D009DCB8F1000F31D0B8F1010F12
:100560001CD0B8F1020F49D120E0B8F1110F18D01A
:10057000B8F1120F42D11EE0B9F5881F25D006DC74
:10058000B9F5803F20D0B9F5801F37D11AE0B9F511
:10059000001F18D0B9F5041F30D117E0D1F80CC0F6
:1005A0002DE0D1F80C8008F1040C28E0D1F80C8083
:1005B00008F1080C23E0D1F80C8008F10C0C1EE0C7
:1005C00000BF00BF00BF00BF00BF00BFD1F8088060
:1005D000B8F1000F02D14FF0040C0BE0D1F8088005
:1005E000B8F1010F03D14FF0080C1C6102E04FF08D
:1005F000080C5C6103E04FF0000C00E000BF00BF9E
:10060000FF2801D8984601E003F104084646FF2878
:1006100002D84FEA820803E0A2F108084FEA8808EE
:100620004746D6F800804FF00F0909FA07F928EA83
:1006300009080CFA07F900E088E048EA0908C6F85A
:100640000080D1F8048008F08058B8F1805F7DD137
:1006500000BFDFF8CC81D8F8188048F00108DFF837
:10066000C091C9F81880C846D8F8188008F0010869
:10067000CDF8008000BF00BF4FEAB9384FEA9209B9
:1006800058F829504FEA82784FEA18794FF00F084E
:1006900008FA09F825EA0805DFF88881434502D100
:1006A0004FF0000816E0DFF88081434502D14FF09B
:1006B00001080FE0DFF87481434502D14FF00208D2
:1006C00008E0DFF86C81434502D14FF0030801E0F8
:1006D0004FF004084FEA82794FEA197908FA09F8CD
:1006E00048EA0505DFF84C814FEA920948F829509D
:1006F000D1F8048008F48038B8F5803F0AD1DFF8DB
:100700003881D8F8008048EA0008DFF82C91C9F851
:10071000008009E0DFF82081D8F8008028EA00088E
:10072000DFF81491C9F80080D1F8048008F400388B
:10073000B8F5003F10D1DFF8008108F10408D8F8BF
:10074000008048EA0008DFF8F09000E05AE009F184
:100750000409C9F800800DE0DFF8DC8008F1040826
:10076000D8F8008028EA0008DFF8CC9009F10409E5
:10077000C9F80080D1F8048008F48018B8F5801F0B
:100780000ED1DFF8B48008F10808D8F8008048EAF4
:100790000008DFF8A49009F10809C9F800800DE00D
:1007A000DFF8948008F10808D8F8008028EA0008EB
:1007B000DFF8849009F10809C9F80080D1F80480B5
:1007C00008F40018B8F5001F0ED1DFF86C8008F1AE
:1007D0000C08D8F8008048EA0008DFF85C9009F1BE
:1007E0000C09C9F800800DE0DFF84C8008F10C0816
:1007F000D8F8008028EA0008DFF83C9009F10C09DD
:10080000C9F80080521CD1F8008028FA02F8B8F12B
:10081000000F7FF489AEBDE8F887000000001110DA
:100820000010024000080140000C0140001001408F
:100830000014014008000140000401400AB10161B8
:1008400001E00B0403617047014800687047000035
:10085000A8000020034800680349097808440149BA
:1008600008607047A8000020B000002010B50848BC
:10087000006840F0100006490860032000F0A8F866
:10088000002000F007F800F02BF8002010BD000059
:100890000020024070B504460E4800784FF47A718B
:1008A000B1FBF0F00C490968B1FBF0F5284601F006
:1008B0008AFC08B1012070BD102C07D2002221460D
:1008C000501E00F047F80548046001E00120F2E7FF
:1008D0000020F0E7B0000020B4000020AC000020B1
:1008E00008B500BF1148806940F001000F498861D8
:1008F0000846806900F00100009000BF00BF00BF03
:100900000846C06940F08050C8610846C06900F0E0
:100910008050009000BF00BF00BF0549486820F02C
:10092000E06040F00070486000BF08BD0010024069
:100930000000014001460846002809DB00F01F03C3
:1009400001229A4043099B0003F1E023C3F80021F0
:1009500000BF70472DE9F05F80460D461646002720
:1009600005F0F2FB074639462A46334601F00700F8
:10097000C0F1070ABAF1040F02D94FF0040A01E0EE
:10098000C0F1070AD14600F1040ABAF1070F02D2FA
:100990004FF0000A01E0A0F1030AD4464FF0010A2B
:1009A0000AFA09FAAAF1010A0AEA020A0AFA0CFA90
:1009B0004FF0010B0BFA0CFBABF1010B0BEA030B35
:1009C0004AEA0B042146404605F0C6FBBDE8F09F0D
:1009D00000BF00F00702064B19684FF6FF031940ED
:1009E000044B0B4343EA0221014B196000BF7047DF
:1009F0000CED00E00000FA0570B505460C4604F069
:100A00008000802808D104F0070000EB800605F183
:100A1000280000EBC60105E004EB840605F5B47080
:100A200000EBC6011AB900200873CB8004E0012056
:100A300008730B81180C4881002070BD704770B599
:100A400004460D4605EB850304F1280101EBC301C3
:100A50004A692946D4F8E80203F098FC70BD70B5E5
:100A600004460D4605EB850304F5B47101EBC301A3
:100A70004A692946D4F8E80203F008FD70BD70B554
:100A800004460E4606F0800080280AD106F00700D2
:100A900000EB800104F1280000EBC1050120687023
:100AA00009E006F0070000EB800104F5B47000EBEC
:100AB000C1050020687006F00700287000BF94F898
:100AC000A802012801D1022070BD012084F8A802EB
:100AD00000BF2946206804F051FB00BF002084F8C5
:100AE000A80200BF00BFEFE770B504460E4606F04F
:100AF0000F006168884201D9012070BD06F08000B6
:100B000080280AD106F0070000EB800104F12800DC
:100B100000EBC1050120687009E006F0070000EB5A
:100B2000800104F5B47000EBC1050020687000205E
:100B3000A87006F00700287000BF94F8A8020128EA
:100B400001D10220D9E7012084F8A80200BF29467C
:100B5000206804F06FFC00BF002084F8A80200BFEA
:100B600000BFCAE72DE9F04105460C46174607F4D9
:100B70008040002850D02868B0F85010207801EB51
:100B8000C000801C296801F5806131F81000C0F3B5
:100B90000906A069B04203D3A069801BA06101E0EF
:100BA0000020A061A069A8B900BF2278520029687E
:100BB00031F812104BF68F7201EA020080F40050F7
:100BC00040F4004141F0800123785B002A6822F85C
:100BD000131000BF07F04000A8B100BF00BF22788B
:100BE0005200296831F8121048F68F7201EA0200AB
:100BF00040F4004141F0C00123785B002A6822F8EC
:100C0000131000BF00BF002E55D022896169334602
:100C1000286805F0BFF94EE02868B0F85010207839
:100C200001EBC000801D296801F5806131F81000DA
:100C3000C0F30906A069B04203D3A069801BA0617C
:100C400001E00020A061A069A8B900BF227852008D
:100C5000296831F812104BF68F7201EA020080F415
:100C6000005040F4004141F0800123785B002A6885
:100C700022F8131000BF07F04000A8B900BF00BF62
:100C800022785200296831F8121048F68F7201EA72
:100C9000020040F4004141F0C00123785B002A6863
:100CA00022F8131000BF00BF2EB16289616933467C
:100CB000286805F06FF93046BDE8F0812DE9F0476E
:100CC00005460C46904608F0400000287ED0286873
:100CD000B0F85010207801EBC000801C296801F5A5
:100CE000806131F81000C0F30907A069B84203D948
:100CF000A069C01BA06101E00020A061A069E8B963
:100D000021782846FFF79BFE08F48040002814D085
:100D100000BF00BF22785200296831F8121048F64F
:100D20008F7201EA020040F4004141F481412378CE
:100D30005B002A6822F8131000BF5FE108F48040CE
:100D4000A8B100BF00BF22785200296831F8121004
:100D500048F68F7201EA020040F4004141F48141FB
:100D600023785B002A6822F8131000BF00BF94F8B4
:100D700024000128E1D1606938446061E0693844A9
:100D8000E0612169206A884204D32669206A801BB9
:100D900020620BE0206A20B93E46002084F824003F
:100DA00004E0002084F82400266A206200BF6078F6
:100DB000C8BB00BF2A682968B1F850100A442178DE
:100DC000022303EBC10102F5806300E047E003EB7F
:100DD0004101084600BF56B9038848F2FF3C03EAC8
:100DE0000C030380038843F40043038019E03E2E84
:100DF0000BD800BF710806F0010303B1491C4FF680
:100E0000FF7303EA812303800BE000BF710906F042
:100E10001F0303B9491E4FF4004343EA81230380B3
:100E200000BF00BF13E0FFE7607801280FD100BFCB
:100E300028682A68B2F8502010442278022303EB75
:100E4000C20200F5806303EB42010E8000BF00BFC9
:100E5000B3B222896169286805F0CBF8CEE0286832
:100E6000B0F85010207801EBC000801D296801F512
:100E7000806131F81000C0F30907A069B84203D3BC
:100E8000A069C01BA06101E00020A061A069E8B9D1
:100E900021782846FFF7D3FD08F480400028DDD1F3
:100EA00000BF00BF22785200296831F8121048F6BE
:100EB0008F7201EA020040F4004141F4814123783D
:100EC0005B002A6822F8131000BF97E008F4804006
:100ED000A8B900BF00BF22785200296831F812106B
:100EE00048F68F7201EA020040F4004141F481416A
:100EF00023785B002A6822F8131000BF00BF94F823
:100F0000240001287AD1606938446061E06938447E
:100F1000E0612169206A884204D32669206A801B27
:100F200020620BE0206A20B93E46002084F82400AD
:100F300004E0266A0020206284F8240000BF2A68AA
:100F4000607890BB00BFD5F800C02968B1F8501098
:100F50008C4421784FF0060909EBC1010CF580693A
:100F600009EB4101084600BF76B9B0F8009048F29D
:100F7000FF3A09EA0A09A0F80090B0F8009049F495
:100F80000049A0F8009020E03E2E0FD800BF710865
:100F900006F00109B9F1000F00D0491C4FF6FF79A6
:100FA00009EA8129A0F800900FE010E000BF710964
:100FB00006F01F09B9F1000F00D1491E4FF4004996
:100FC00049EA8129A0F8009000BF00BF0FE06078D7
:100FD00001280CD12868B0F850000244207806217E
:100FE00001EBC00002F5806101EB40031E8000BFF1
:100FF000B3B262896169286804F0FBFF00BF227800
:101000005200296831F8121048F6BF7201EA020056
:1010100080F0100080F0200040F4004141F0800199
:1010200023785B002A6822F8131000BF0020BDE877
:10103000F0872DE9F04705460E4690461F464FF0D3
:10104000000906F0800080280AD106F0070000EBB6
:10105000800105F1280000EBC1040120607009E067
:1010600006F0070000EB800105F5B47000EBC10449
:101070000020607006F007002070C4F81080E77050
:10108000607808B12078E081022F01D10020207122
:1010900000BF95F8A802012802D10220BDE8F08720
:1010A000012085F8A80200BF2146286803F03CFE15
:1010B00000BF002085F8A80200BF4846EEE72DE9F2
:1010C000F04105460E461746984606F0070000EB2D
:1010D000800105F5B47000EBC1046761C4F81880A5
:1010E0000020E061607006F00700207006F0070045
:1010F00020B92146286804F038FA03E02146286820
:1011000004F033FA0020BDE8F08170B504460D46C6
:1011100005F007006168884201D9012070BD05F023
:10112000800080280AD105F0070000EB800104F15F
:10113000280000EBC1060120707007E005EB850177
:1011400004F5B47000EBC106002070700120B0708F
:1011500005F00700307000BF94F8A802012801D103
:101160000220DBE7012084F8A80200BF3146206896
:1011700004F0CDF905F0070020B904F52C712068C2
:1011800004F055F900BF002084F8A80200BF00BF9A
:10119000C4E72DE9F04105460E4690461F4606F08D
:1011A000070000EB800105F1280000EBC104C4F842
:1011B0001480A761012084F8240027620020E061E8
:1011C0000120607006F00700207006F0070020B9CB
:1011D0002146286804F0C9F903E02146286804F094
:1011E000C4F90020BDE8F0817FB50446206804F012
:1011F000CDFE00F40040B0F5004F02D1204601F0D2
:1012000058FF206804F0C2FE00F48060B0F5806FE3
:101210000FD12068B0F844004FF6FF310840216834
:10122000A1F84400204600F09FF90021204600F07C
:10123000BBF9206804F0AAFE00F48040B0F5804FAE
:1012400008D12068B0F844004BF6FF7108402168CF
:10125000A1F84400206804F099FE00F40050B0F5B5
:10126000005F08D12068B0F844004DF6FF710840D7
:101270002168A1F84400206804F088FE00F4805042
:10128000B0F5805F1DD12068B0F840004FF6FB71CB
:1012900008402168A1F840002068B0F840004FF6EF
:1012A000F77108402168A1F84000204600F06EF96F
:1012B0002068B0F844004EF6FF7108402168A1F89C
:1012C0004400206804F062FE00F40060B0F5006F96
:1012D00055D1002507E06900206830F811002DF88D
:1012E0001500681CC5B2082DF5D32068B0F8400081
:1012F00040F001002168A1F840002068B0F84000EB
:101300004FF6FE7108402168A1F8400000BF206838
:10131000B0F8440000F480600028F8D02068B0F8ED
:1013200044004FF6FF3108402168A1F84400002531
:1013300007E03DF815006A00216821F81200681CDA
:10134000C5B2082DF5D32068B0F8400040F0080081
:101350002168A1F840002068B0F844004FF2FF7106
:1013600008402168A1F844002068B0F8400040F02F
:1013700004002168A1F84000204600F057F92068D9
:1013800004F004FE00F40070B0F5007F0BD120687B
:10139000B0F844004FF6FF5108402168A1F844001E
:1013A000204600F0FAF8206804F0F0FD00F48070A8
:1013B000B0F5807F08D12068B0F844004FF6FF6197
:1013C00008402168A1F844007FBD30B585B00446CF
:1013D00014B9012005B030BD94F8A90228B9002045
:1013E00084F8A802204600F09DF8032084F8A902A2
:1013F000206804F012F8142204F110016846FEF788
:1014000091FE94E80F0003F0B5FE20B1022084F8AD
:10141000A9020120DEE70021206804F0E0FD00259C
:1014200031E0012105EB850204F1280000EBC20048
:10143000417005EB850104F1280000F8315005EBFF
:10144000850100EBC100C581002105EB850204F197
:10145000280000EBC200C17005EB850204F12800F2
:1014600000EBC200016105EB850204F1280000EBEE
:10147000C200416105EB850204F1280000EBC200C7
:101480008161681CC5B26068A842CAD800252AE0FC
:10149000002105EB850204F5B47000EBC200417039
:1014A00005EB850104F5B47000F83150002105EB1F
:1014B000850200EBC200C17005EB850204F5B47033
:1014C00000EBC200016105EB850204F5B47000EB8E
:1014D000C200416105EB850204F5B47000EBC20067
:1014E0008161681CC5B26068A842D1D8142204F199
:1014F00010016846FEF716FE94E80F0003F082FF25
:1015000020B1022084F8A902012063E7002084F8BA
:101510002400012084F8A902206803F070FF002055
:1015200058E7000038B504460D492068884215D1B7
:1015300000BF0C48C06940F400000A49C861084671
:10154000C06900F40000009000BF00BF00221146F7
:101550001420FFF7FFF91420FFF7ECF938BD000065
:10156000005C00400010024070B504460125A068F0
:10157000022801D0FEF76FFF2946D4F8E80203F0F5
:10158000A9F8D4F8E80203F05BF870BD10B5044682
:10159000D4F8E80203F082F810BD10B50446D4F880
:1015A000E80203F086F810BD70B504460D4600BF92
:1015B00094F8A802012801D1022070BD012084F80E
:1015C000A80200BF84F824502946206804F00AFDD0
:1015D00000BF002084F8A80200BF00BFEDE710B5EF
:1015E000044604F52C71D4F8E80203F08AF810BD23
:1015F00010B5044600BF94F8A802012801D10220CA
:1016000010BD012084F8A80200BF206804F0ACFCE3
:1016100001212046FFF712FA206803F0EDFE00BF1B
:10162000002084F8A80200BF00BFE9E710B5044617
:10163000D4F8E80203F0BEF8A06928B103480068B6
:1016400040F006000149086010BD000010ED00E008
:10165000F8B5044600260025207800F00100002897
:101660006BD000274348C06900F0805070B900BFBC
:101670004048C06940F080503E49C8610846C06992
:1016800000F08050009000BF00BF01273A4800687A
:1016900000F48070B0B93848006840F48070364972
:1016A0000860FFF7D1F8064606E0FFF7CDF8801B8B
:1016B000642801D90320F8BD2F48006800F4807029
:1016C0000028F2D02B48006A00F440752DB3A088A2
:1016D00000F44070A84220D02648006A20F44075EB
:1016E000012026490860002008602248056205F0B4
:1016F000010090B1FFF7A8F8064608E0FFF7A4F84C
:10170000801B41F28831884201D90320D3E7194870
:10171000006A00F002000028F0D01648006A20F4A9
:1017200040706168084313490862012F04D10846DC
:10173000C06920F08050C86100BF207800F002002E
:10174000022807D10B48406820F44040A1680843B4
:1017500008494860207800F01000102807D105489B
:10176000406820F48000E168084302494860002096
:10177000A1E7000000100240007000404004424217
:1017800070B504460D460CB9012070BD5A4800687A
:1017900000F00700A8420ED25748006820F007006A
:1017A0002843554908600846006800F00700A84231
:1017B00001D00120E9E7207800F0020002281DD1C5
:1017C000207800F00400042805D14C48406840F41B
:1017D000E0604A494860207800F00800082805D1F8
:1017E0004648406840F46050444948604348406877
:1017F00020F0F000A168084340494860207800F0DC
:10180000010078B36068012806D13C48006800F404
:10181000003090B90120B8E76068022806D1374847
:10182000006800F0007040B90120AEE7334800685E
:1018300000F0020008B90120A7E73048406820F016
:101840000300616808432D494860FEF7FDFF064626
:1018500009E0FEF7F9FF801B41F28831884202D986
:10186000032092E707E02548406800F00C0061681B
:10187000B0EB810FEDD12048006800F00700A842CE
:101880000ED91D48006820F0070028431A49086057
:101890000846006800F00700A84201D0012074E764
:1018A000207800F00400042807D11448406820F490
:1018B000E060E168084311494860207800F00800C2
:1018C000082808D10D48406820F46050216940EA9A
:1018D000C1000A49486000F03FF808494968C1F36F
:1018E0000311074A515CC840064908600648006871
:1018F000FEF7D0FF002048E7002002400010024021
:1019000066700008B4000020AC00002001480068A8
:1019100070470000B400002000B5FFF7F7FF04494E
:101920004968C1F30221034A515CC84000BD000070
:10193000001002407670000800B5FFF7E7FF044989
:101940004968C1F3C221034A515CC84000BD000090
:101950000010024076700008F0B585B00FF26C0CF4
:101960009CE8E01001A8A0E8E0101CA52D680095F7
:1019700000210022002300240020194D696801F095
:101980000C05F5B1042D02D0082D19D101E0154840
:1019900019E001ADC1F38346AC5D01F4803555B16A
:1019A0000F4D6D68C5F340451DF805200D4D65438D
:1019B000B5FBF2F302E00C4D04FB05F3184602E020
:1019C00000BF0A4800BF00BF05B0F0BD0203040518
:1019D000060708090A0B0C0D0E0F1010010200007B
:1019E00000100240001BB70000093D0000127A0001
:1019F000F8B504460CB90120F8BD207800F00100CC
:101A0000002878D0F848406800F00C0004280CD07A
:101A1000F548406800F00C00082811D1F2484068F1
:101A200000F48030B0F5803F0AD1EF48006800F440
:101A3000003000285FD0606800285CD10120DBE71F
:101A400000BF6068B0F5803F06D1E748006840F409
:101A50008030E549086028E0606858B9E2480068CD
:101A600020F48030E04908600846006820F48020B7
:101A700008601AE06068B0F5A02F0BD1DA48006862
:101A800040F48020D84908600846006840F480305F
:101A900008600AE0D448006820F48030D249086029
:101AA0000846006820F48020086000BF606888B1A4
:101AB000FEF7CAFE054606E0FEF7C6FE401B642898
:101AC00001D9032098E7C848006800F400300028D6
:101AD000F2D010E0FEF7B8FE054606E0FEF7B4FED1
:101AE000401B642801D9032086E7BF48006800F442
:101AF00000300028F2D1207800F00200022857D1EF
:101B0000B948406800F00C0050B1B748406800F098
:101B10000C00082818D1B448406800F4803098B907
:101B2000B148006800F0020020B12069012801D00E
:101B3000012061E7AC48006820F0F800616940EAE4
:101B4000C100A949086033E02069E8B10120A74934
:101B50000860FEF779FE054606E0FEF775FE401BBD
:101B6000022801D9032047E79F48006800F00200DF
:101B70000028F2D09C48006820F0F800616940EA33
:101B8000C1009949086013E0002098490860FEF7F9
:101B90005BFE054606E0FEF757FE401B022801D912
:101BA000032029E79048006800F002000028F2D1E5
:101BB000207800F0080008282DD1A069B8B10120D4
:101BC0008B490860FEF740FE054606E0FEF73CFE46
:101BD000401B022801D903200EE78348406A00F029
:101BE00002000028F2D0012001F056FC13E0002092
:101BF0007F490860FEF728FE054606E0FEF724FE52
:101C0000401B022801D90320F6E67748406A00F01D
:101C100002000028F2D1207800F00400042873D1DB
:101C200000277148C06900F0805070B900BF6E484D
:101C3000C06940F080506C49C8610846C06900F036
:101C40008050009000BF00BF01276A48006800F480
:101C50008070B0B96748006840F4807065490860DA
:101C6000FEF7F2FD054606E0FEF7EEFD401B642898
:101C700001D90320C0E65F48006800F480700028A6
:101C8000F2D000BFE068012806D15748006A40F052
:101C900001005549086227E0E06858B95248006AD7
:101CA00020F00100504908620846006A20F0040054
:101CB000086219E0E06805280BD14B48006A40F043
:101CC0000400494908620846006A40F001000862C1
:101CD0000AE04548006A20F00100434908620846CE
:101CE000006A20F00400086200BFE068A0B1FEF7BF
:101CF000ABFD054609E0FEF7A7FD401B41F2883128
:101D0000884202D9032077E622E03748006A00F0D3
:101D100002000028EFD012E0FEF796FD054608E02D
:101D2000FEF792FD401B41F28831884201D9032021
:101D300062E62D48006A00F002000028F0D1012F71
:101D400005D12948C06920F080502749C86100BFEB
:101D5000E069C8B32448406800F00C00082860D04F
:101D6000E069022848D1002020490866FEF76CFD92
:101D7000054606E0FEF768FD401B022801D9032056
:101D80003AE61948006800F000700028F2D1206A95
:101D9000B0F5803F07D11448406820F40030A168B6
:101DA000084311494860D4E9080108430E494968CD
:101DB00021F4741108430C49486001200B4908665E
:101DC000FEF742FD054607E03DE0FEF73DFD401B06
:101DD000022801D903200FE60348006800F00070D4
:101DE0000028F2D02FE00000001002400000424224
:101DF0008004424200700040002014490866FEF74B
:101E000023FD054606E0FEF71FFD401B022801D911
:101E10000320F1E50E48006800F000700028F2D1C0
:101E200011E0E069012800D1E6E50948466806F4BA
:101E30008031206A814204D106F47011606A8142C7
:101E400001D00120D8E50020D6E500000000424284
:101E50000010024010B504460CB9012010BD606AA4
:101E600038B96068B0F5827F00D105E00021E161FA
:101E700002E00021216161610021A16294F851001A
:101E800028B9002084F85000204600F043F80220D2
:101E900084F851002068006820F040002168086044
:101EA000A08800F48270218901F404410843A189CB
:101EB00001F400610843217C01F002010843217D07
:101EC00001F001010843218B01F400710843217FD7
:101ED00001F0380108432021095D01F08001084329
:101EE000218D01F400510843216808600421A06994
:101EF00001EA1040216848602068C06920F4006051
:101F00002168C86100206065012084F8510000202C
:101F1000A4E7000010B586B00446002002900390AC
:101F2000049005901A49206888422FD100BF1948B3
:101F3000C06940F480401749C8610846C06900F490
:101F40008040019000BF00BF00BF0846806940F09C
:101F5000080088610846806900F00800019000BF11
:101F600000BF4FF420400290022003900320059010
:101F700002A90948FEF7D2FA4FF4804002900020EF
:101F80000390049002A90448FEF7C8FA06B010BDF9
:101F90000038004000100240000C01402DE9FF5FB6
:101FA0000446884691461D460E9E01200290002060
:101FB000019000BF94F85000012803D1022004B022
:101FC000BDE8F09F012084F8500000BFFEF73CFC04
:101FD000074694F851B060680390AA46BBF1010F20
:101FE0000BD00398B0F5827F04D1A06810B9BBF183
:101FF000040F02D002200190DBE0B8F1000F03D003
:10200000B9F1000F00D015B901200190D1E094F88A
:102010005100042802D0052084F85100002060659A
:10202000C4F83890E587A587C4F83080E586A58692
:10203000206460642068006800F04000402805D0FB
:102040002068006840F0400021680860E068B0F552
:10205000006F4AD1606810B1BAF1010F09D1206B4D
:1020600000882168C860206B801C2063E08E401EC1
:10207000E08633E02068806800F00200022810D17A
:10208000E08E70B1029801280BD1206B0088216886
:10209000C860206B801C2063E08E401EE08600201C
:1020A00002902068806800F0010068B1E08F58B1AC
:1020B0002068C068A16B0880A06B801CA063E08FC3
:1020C000401EE08701200290FEF7BEFBC01BB0421D
:1020D00004D3701C10B1032001906AE0E08E002848
:1020E000C8D1E08F0028C5D14AE0606810B1BAF1CC
:1020F000010F09D1206B007821680873206B401C08
:102100002063E08E401EE08634E02068806800F0A6
:102110000200022810D1E08E70B1029801280BD184
:10212000206B007821680873206B401C2063E08ED0
:10213000401EE086002002902068806800F00100C8
:1021400068B1E08F58B12068C068A16B0870A06BBF
:10215000401CA063E08F401EE08701200290FEF744
:1021600073FBC01BB04201D3701C00B916B9032029
:1021700001901EE0E08E0028C7D1E08F0028C4D176
:102180003A463146204601F09BF920B101200190EA
:10219000202060650DE0A06850B900BF00200090CD
:1021A0002068C068009020688068009000BF00BF71
:1021B00000BF012084F8510000BF002084F85000C7
:1021C00000BF0198FBE670B504462546681EB0F1D5
:1021D000807F01D301200FE0681E4FF0E0214861AD
:1021E0000F214FF0FF3003F0B7FF00204FF0E02148
:1021F000886107200861002070BD7047704710B5E6
:102200000346002200BF93F83C00012801D10220C0
:1022100010BD012083F83C0000BF22F0FF00CC6815
:1022200040EA040222F440708C6840EA040222F47E
:1022300080604C6840EA040222F400600C6840EAC6
:10224000040222F480500C6940EA040222F4005097
:102250004C6940EA040222F48040CC6940EA04025E
:102260001868426400BF002083F83C0000BF00BF34
:10227000CEE7000030B502460B4600BF92F83C00A6
:10228000012801D1022030BD012082F83C0000BFAE
:10229000022082F83D00106844681068816824F0CC
:1022A00070041868044310684460104D1068A84218
:1022B0000BD01068B0F1804F07D00D4D1068A842C8
:1022C00003D00C4D1068A84205D121F08001586858
:1022D000014310688160012082F83D0000BF0020AA
:1022E00082F83C0000BF00BFCDE70000002C014099
:1022F000000400400008004010B504460CB901205D
:1023000010BD94F83D0028B9002084F83C00204618
:1023100000F026F8022084F83D00211D206801F01D
:1023200027FA012084F8460000BF84F83E0001210E
:102330003F200155402001554120015500BF00BFFD
:10234000012084F8420043200155442001554520D6
:10235000015500BF012084F83D000020D0E70000B7
:1023600038B504461F492068884216D100BF1E4870
:10237000806940F400601C4988610846806900F467
:102380000060009000BF00BF002211461920FEF738
:10239000E1FA1920FEF7CEFA23E0144920688842BA
:1023A0000DD100BF1048C06940F002000E49C8615D
:1023B0000846C06900F00200009000BF11E00C491F
:1023C000206888420DD100BF0748C06940F0040072
:1023D0000549C8610846C06900F00400009000BFCC
:1023E00000BF38BD002C0140001002400004004036
:1023F00000080040014691F83D00012801D001206D
:102400007047022081F83D000868C06840F0010074
:102410000B68D860124B086898420BD00868B0F17E
:10242000804F07D00F4B0868984203D00E4B0868C6
:1024300098420CD10868806800F00702062A0CD088
:102440000868006840F001000B68186005E0086843
:10245000006840F001000B6818600020D0E7000021
:10246000002C0140000400400008004001460868BC
:10247000C06820F001000A68D06000BF0868006AE8
:1024800041F21112104050B90868006A92101040D1
:1024900028B90868006820F001000A68106000BFD1
:1024A000012081F83D00002070472DE9F0410446ED
:1024B0000D4600BF94F83C00012802D10220BDE87F
:1024C000F081012084F83C0000BF022084F83D0028
:1024D0002068866826F0770626F47F4620688660A6
:1024E0002868502833D00CDC202850D004DC002889
:1024F0004BD0102851D149E0302849D040284CD148
:1025000039E060282DD0702807D0B0F5805F03D067
:10251000B0F5005F41D10DE040E0D5E902136A68F3
:10252000206801F070F92068866846F07706206818
:10253000866033E0D5E902136A68206801F063F928
:102540002068806840F480402168886026E0EA685E
:102550006968206801F028FA5021206801F05EF9CE
:102560001CE0EA686968206801F031FA602120689F
:1025700001F054F912E0EA686968206801F014FA81
:102580004021206801F04AF908E000BF00BF00BF09
:102590002968206801F042F900E000BF00BF012077
:1025A00084F83D0000BF002084F83C0000BF00BF5D
:1025B00085E7704710B5044620680069C0F3400005
:1025C000D8B12068C068C0F34000B0B16FF002001D
:1025D00021680861012020772068806900F00300ED
:1025E00018B12046FFF7E5FF05E0204600F01AF994
:1025F000204600F0CAF90020207720680069C0F367
:102600008000D8B12068C068C0F38000B0B16FF01E
:10261000040021680861022020772068806900F4A6
:10262000407018B12046FFF7C4FF05E0204600F0D7
:10263000F9F8204600F0A9F9002020772068006909
:10264000C0F3C000D8B12068C068C0F3C000B0B10A
:102650006FF0080021680861042020772068C069B5
:1026600000F0030018B12046FFF7A3FF05E0204665
:1026700000F0D8F8204600F088F900202077206884
:102680000069C0F30010D8B12068C068C0F3001022
:10269000B0B16FF010002168086108202077206831
:1026A000C06900F4407018B12046FFF782FF05E0D2
:1026B000204600F0B7F8204600F067F900202077A8
:1026C0002068006900F0010058B12068C06800F07F
:1026D000010030B16FF0010021680861204600F070
:1026E0000DFA20680069C0F3C01058B12068C068B6
:1026F000C0F3C01030B16FF080002168086120463F
:10270000FFF77BFD20680069C0F3801058B1206896
:10271000C068C0F3801030B16FF0400021680861DC
:10272000204600F0F9F920680069C0F3401058B164
:102730002068C068C0F3401030B16FF020002168FD
:1027400008612046FFF75AFD10BD000010B586B0A5
:102750000446002002900390049005902B492068C5
:10276000884218D100BF2A48806940F004002849F7
:1027700088610846806900F00400019000BF00BF36
:102780004FF44070029002200390059002A9214866
:10279000FDF7C4FE37E020492068884217D100BF0A
:1027A0001B48806940F00800194988610846806923
:1027B00000F00800019000BF00BF0320029002203B
:1027C0000390059002A91548FDF7A8FE1BE01449E7
:1027D0002068884217D100BF0D48806940F008008A
:1027E0000B4988610846806900F00800019000BF2D
:1027F00000BF4FF44070029002200390059002A9A0
:102800000648FDF78BFE06B010BD0000002C01400D
:10281000001002400008014000040040000C01408C
:1028200000080040704770B504460D46164600BFCC
:1028300094F83C00012801D1022070BD012084F8E9
:102840003C0000BF36B1042E1BD0082E31D00C2E18
:102850005ED145E02946206800F0EAFF20688069E3
:1028600040F00800216888612068806920F0040039
:102870002168886120688069296908432168886126
:1028800047E02946206801F003F82068806940F499
:102890000060216888612068806920F48060216878
:1028A000886120688069296940EA0120216888617F
:1028B0002FE02946206801F01FF82068C06940F029
:1028C00008002168C8612068C06920F00400216800
:1028D000C8612068C069296908432168C86118E097
:1028E0002946206801F03CF82068C06940F4006087
:1028F0002168C8612068C06920F480602168C861CF
:102900002068C069296940EA01202168C86100E0A7
:1029100000BF00BF00BF002084F83C0000BF00BF24
:102920008BE710B504460CB9012010BD94F83D00AA
:1029300028B9002084F83C00204600F025F8022049
:1029400084F83D00211D206800F012FF012084F86A
:10295000460000BF84F83E0001213F200155402081
:1029600001554120015500BF00BF012084F84200FD
:1029700043200155442001554520015500BF012049
:1029800084F83D000020D0E77047704770B50446DA
:102990000D4615B994F83E000BE0042D02D13F20FE
:1029A000005D06E0082D02D14020005D01E04120DD
:1029B000005D012801D0012070BD1DB9022084F8FE
:1029C0003E000EE0042D03D102213F20015508E016
:1029D000082D03D102214020015502E002214120AF
:1029E000015501222946206800F0FCFE19492068A3
:1029F000884201D1012000E0002028B12068406C0D
:102A000040F40040216848641249206888420BD095
:102A10002068B0F1804F07D00F492068884203D06A
:102A20000E49206888420CD12068806800F00706B3
:102A3000062E0CD02068006840F001002168086074
:102A400005E02068006840F001002168086000206F
:102A5000B2E70000002C01400004004000080040E4
:102A600030B504460D4600222946206800F0BAFE23
:102A700021492068884201D1012000E0002090B166
:102A800000BF2068006A41F21111084050B9206867
:102A9000006A8910084028B92068406C20F4004082
:102AA0002168486400BF00BF2068006A41F211112C
:102AB000084050B92068006A8910084028B9206889
:102AC000006820F001002168086000BF1DB90120E6
:102AD00084F83E000EE0042D03D101213F20015572
:102AE00008E0082D03D101214020015502E0012119
:102AF00041200155002030BD002C014070B5044636
:102B000004492068884204D1FDF79EFE054603F083
:102B1000C5FD70BD002C0140704710B504460CB9CE
:102B2000012010BDA06900B100E000BF94F8390099
:102B300028B9002084F83800204600F027F8242027
:102B400084F839002068C06820F400502168C8600B
:102B5000204600F051FF2068006920F49040216871
:102B600008612068406920F02A00216848612068D7
:102B7000C06840F400502168C8600020E063202055
:102B800084F8390084F83A000020CAE710B586B00E
:102B90000446002002900390049005901A49206892
:102BA00088422ED100BF1948C06940F480201749DF
:102BB000C8610846C06900F48020019000BF00BFD2
:102BC00000BF0846806940F00800886108468069B7
:102BD00000F00800019000BF00BF0815029002201D
:102BE00003900320059002A90948FDF797FC4FF4D4
:102BF0000060029000200390049002A90448FDF7B1
:102C00008DFC06B010BD00000048004000100240DE
:102C1000000C014000BFFEE730B50B46002100BFAD
:102C200016E00A24B4EB107F05D9302404EB1074AD
:102C300003F8114005E0412404EB10740A3C03F84A
:102C40001140000100254C00641C1D554C1CE1B2D4
:102C50009142E6DB30BD000010B503490348FDF7A3
:102C6000FBFB0349087010BD190000200400002080
:102C70001800002000B585B000200190029003905C
:102C8000049000BF3B48806940F0100039498861DA
:102C90000846806900F01000009000BF00BF00BF30
:102CA0000846806940F0200088610846806900F08D
:102CB0002000009000BF00BF00BF0846806940F0C0
:102CC000040088610846806900F00400009000BF9D
:102CD00000BF00BF0846806940F0080088610846D0
:102CE000806900F00800009000BF00BF00224FF490
:102CF00060412148FDF7A2FD002241F2FC011F487E
:102D0000FDF79CFD00224FF404411D48FDF796FDA0
:102D10004FF46040019001200290002003900220B7
:102D2000049001A91448FDF7F9FBFF200190002051
:102D30000290039001A91248FDF7F0FB41F2FC005C
:102D4000019001200290002003900220049001A92C
:102D50000A48FDF7E3FB4FF4044001900120029084
:102D6000002003900220049001A90548FDF7D6FB3E
:102D700005B000BD0010024000100140000C0140F1
:102D80000008014010B50E480E4908604FF48270EB
:102D9000486000210B488160C160016141614FF4CE
:102DA000007181611821C16100210162416281626B
:102DB0000A21C162FFF74EF808B1FDF74CFB10BDC8
:102DC000003800409C01002000B595B00020119013
:102DD0001290139014900F9010901C2108A8FDF7EA
:102DE000BAF920216846FDF7B6F92F482F49086047
:102DF0000B20486000212D48816042F21071C160B3
:102E00000021016141618161FFF776FA08B1FDF7A8
:102E100022FB4FF48050119011A92448FFF745FB85
:102E200008B1FDF718FB2148FFF77BFD08B1FDF75E
:102E300012FB00200F9010900FA91C48FFF71AFA00
:102E400008B1FDF708FB60200890002009900A9067
:102E50000B900C900D900E90002208A91348FFF7DC
:102E6000E2FC08B1FDF7F7FA042208A90F48FFF7C2
:102E7000DAFC08B1FDF7EFFA002000900190029013
:102E8000039004904FF4005005900020079069468D
:102E90000648FFF7B4F908B1FDF7DDFA0348FFF77C
:102EA00055FC15B000BD0000002C0140F4010020CD
:102EB00000B58DB0002009900A900B900C900790FF
:102EC00008901C216846FDF746F92448244908600B
:102ED0000B20486000212248816042F21071C160DD
:102EE000002101618161FFF707FA08B1FDF7B3FA2C
:102EF0004FF48050099009A91948FFF7D6FA08B194
:102F0000FDF7A9FA1648FFF70CFD08B1FDF7A3FA83
:102F100000200790089007A91148FFF7ABF908B106
:102F2000FDF799FA60200090002001900290049033
:102F3000082269460A48FFF776FC08B1FDF78BFACC
:102F40000C2269460648FFF76EFC08B1FDF783FACC
:102F50000348FFF7FBFB0DB000BD0000000400407C
:102F60003C02002000B58DB0002009900A900B9023
:102F70000C90079008901C216846FDF7ECF8244857
:102F8000244908600B20486000212248816042F2F9
:102F90001071C160002101618161FFF7ADF908B1D5
:102FA000FDF759FA4FF48050099009A91948FFF725
:102FB0007CFA08B1FDF74FFA1648FFF7B2FC08B1EA
:102FC000FDF749FA00200790089007A91148FFF77C
:102FD00051F908B1FDF73FFA602000900020019000
:102FE00002900490082269460A48FFF71CFC08B1C9
:102FF000FDF731FA0C2269460648FFF714FC08B1C8
:10300000FDF729FA0348FFF7A1FB0DB000BD000052
:10301000000800408402002010B50B480B490860EE
:103020004FF4E1304860002108488160C1600161CF
:103030000C21416100218161C161FFF76EFD08B182
:10304000FDF709FA10BD000000480040CC02002046
:1030500010B500221049114801F059F908B1FDF7E7
:10306000FAF90F490D4801F0DBFB08B1FDF7F3F960
:103070000C490A4800F0DBFD08B1FDF7ECF9074800
:1030800001F098FC08B1FDF7E6F90122910206482B
:10309000FDF7D4FB10BD0000200000202403002019
:1030A000BC000020980000200008014000BFFEE79F
:1030B00070472DE9F0470546E2E12868B0F844A0E2
:1030C0000AF00F06002E7ED10AF01000B0BB00BF40
:1030D0002968098848F60F7201EA020040F40041AD
:1030E0002A68118000BF05F128042868B0F8501044
:1030F000207801EBC000801C296801F5806131F85F
:103100001000C0F30900E061E16960690844606192
:1031100000212846FDF793FC95F824000028CBD029
:10312000A0690028C8D195F8240040F080002968E3
:10313000A1F84C00002085F82400A1E1FFE705F587
:10314000B4742868B0F8008008F4006030B32868D0
:10315000B0F85010207801EBC000801D296801F5FF
:10316000806131F81000C0F30900E061A18B8BB2DF
:10317000E28805F52C71286802F00CFF00BF296871
:10318000098840F68F7201EA020040F080012A6847
:10319000118000BF2846FEF722FA71E108F40040D2
:1031A000002889D000BF2968098840F68F7201EA9B
:1031B000020040F080012A68118000BF2868B0F842
:1031C0005010207800E069E001EBC000801D296804
:1031D00001F5806131F81000C0F30900E061E06999
:1031E00090B1606980B1B4F81CC01FFA8CF3E2881A
:1031F0006169286802F0CEFEE16960690844606197
:1032000000212846FDF72BFC00BF2A682968B1F889
:1032100050100A4402F20C41084600BF236953B91A
:10322000038848F2FF3C03EA0C030380038843F45D
:10323000004303801EE023693E2B0DD800BF2369A5
:103240005908237C03F0010303B1491C4FF6FF73B7
:1032500003EA812303800DE000BF23695909237C21
:1032600003F01F0303B9491E4FF4004343EA8123CF
:10327000038000BF00BF00BF00BF296809884BF66C
:103280008F7201EA020080F4805080F4005040F414
:10329000004141F080012A681180F1E07100286846
:1032A00030F8118008F4004000287ED000BF720082
:1032B000296831F8121040F68F7201EA020040F0DE
:1032C000800173002A6822F8131000BF06EB860104
:1032D00005F5B47000EBC104207BB0B92868B0F8E4
:1032E0005010207801EBC000801D296801F5806135
:1032F00031F81000C0F30907002F5BD0E288616944
:103300003B46286802F046FE54E0E078022806D1E9
:10331000424621462846FDF725FC07464AE000BF05
:1033200000BF22785200296831F8121048F68F72D7
:1033300001EA020040F4004141F0C00123785B0043
:103340002A6822F8131000BF00BF217849002868BE
:1033500030F8110000F48040A8B12868B0F850108F
:10336000207801EBC000801C296801F5806131F8EC
:103370001000C0F30907EFB1228961693B46286854
:1033800002F008FE16E02868B0F85010207801EB33
:10339000C000801D296801F5806131F81000C0F37C
:1033A00009073FB16289616900E017E03B46286880
:1033B00002F0F0FDE0693844E06160693844606122
:1033C000A06910B12069B84204D921782846FDF7D8
:1033D00046FB03E02146286802F0C7F808F08000A9
:1033E000A0B306EB860105F1280000EBC10400BF85
:1033F0007200296831F8121048F60F7201EA0200D3
:1034000040F4004173002A6822F8131000BFE078EE
:10341000022805D1E07802282DD108F4807050BB35
:103420002868B0F85010207801EBC000801C296893
:1034300001F5806131F81000C0F30909A069484521
:1034400005D9A069A0EB0900A06102E018E0002006
:10345000A061A06920B921782846FDF7F0FA0FE0B5
:10346000606948446061E0694844E0612146286839
:1034700002F07BF804E0424621462846FDF71EFC98
:103480002868B0F8440000F4004000287FF415AE2E
:10349000BDE8F0877047000008B508490968C90809
:1034A0004FF47A72B1FBF2F14143009100BF00BFCB
:1034B00000994A1E00920029F9D108BDB4000020ED
:1034C000F8B504460D4616462B46002280212046BC
:1034D000009600F067F828B1606D40F0200060654C
:1034E0000320F8BD0020FCE770B506460C461546E3
:1034F00022462946304603F0AFFB70BD70B5064644
:103500000C46154622462946304603F009FD02289E
:1035100001D0002070BD4FF0FF30FBE770B50446CE
:10352000204603F053F8207D10B14FF0FF3070BDFE
:10353000E07C617D884213D0002609E0617D204651
:1035400003F00EFC05460DB1012D00D102E0761C02
:10355000032EF3DB00BF022D01D1E81EE7E700BF19
:103560000020E4E710B504460021204600F001F8F1
:1035700010BD13B582B004464FF480700090012353
:1035800001AA03A92068FEF709FD9DF8040004B014
:1035900010BD70B504460D4629462046FFF7E9FFE9
:1035A00070BD00002DE9F84F04460D4690461E46BA
:1035B000DDF82890FDF748F9A0EB0900371AFDF770
:1035C00043F982462C480068C0F3CB307843009022
:1035D00045E0701C002842D0FDF736F9A0EB0A0048
:1035E000B84200D2A7BB2068406820F0E000216804
:1035F00048606068B0F5827F0DD1A068B0F5004FDB
:1036000003D0A068B0F5806F05D12068006820F075
:10361000400021680860A06AB0F5005F0DD100BFCE
:103620002068006820F40050216808602068006865
:1036300040F400502168086000BF012084F8510068
:1036400000BF002084F8500000BF0320BDE8F88FC1
:10365000FFE7009800B900270098401E00902068FE
:1036600080682840A84201D1012000E000204045A8
:10367000AFD10020EAE70000B4000020704710B589
:10368000FDF7E8F810BD00B593B0282109A8FCF7B4
:1036900062FD142104A8FCF75EFD0020009001905B
:1036A000029003900120099000040A9000200B90E2
:1036B00001200D9002201090C103119181041291FC
:1036C00009A8FEF795F908B1FCF7C5FE0F20049094
:1036D00002200590002006904FF4806007900020A3
:1036E0000890012104A8FEF74BF808B1FCF7B3FEDF
:1036F00010200090800403906846FDF7A9FF08B1F0
:10370000FCF7A9FE13B000BD1148006840F00100AD
:103710000F490860084640680E4908400C49486057
:10372000084600680C4908400949086008460068D6
:1037300020F4802008600846406820F4FE004860BD
:103740004FF41F008860C8030449086070470000F8
:10375000001002400000FFF8FFFFF6FE08ED00E059
:1037600010B50248FEF726FF10BD0000F40100204E
:1037700010B50268184B984208D0B0F1804F05D0C0
:10378000164B984202D0164B984203D122F0700299
:103790004B681A43104B984208D0B0F1804F05D0C7
:1037A0000E4B984202D00E4B984203D122F4407245
:1037B000CB681A4322F080034C6943EA040202609A
:1037C0008B68C3620B688362034B984201D10B691B
:1037D00003630123436110BD002C0140000400403D
:1037E0000008004030B501F01F05012404FA05F37C
:1037F000046A9C430462046A01F01F0502FA05F59D
:103800002C43046230BD30B50C46816821F47F4101
:1038100042EA032525432943816030BD0A46816879
:1038200021F0700142F007031943816070470000E6
:1038300030B5056A25F001050562026A43688469AE
:1038400024F0700424F003040D682C4322F00202DB
:103850008D682A430D4DA84206D100BF22F0080210
:10386000CD682A4322F00402084DA84207D123F470
:10387000807323F400734D692B438D692B434360A0
:1038800084614D684563026230BD0000002C014038
:1038900030B5056A25F010050562026A436884693F
:1038A00024F4E04424F440740D6844EA052422F032
:1038B00020028D6842EA05120E4DA84207D100BFD2
:1038C00022F08002CD6842EA051222F04002094D42
:1038D000A84209D123F4806323F400634D6943EACD
:1038E00085038D6943EA8503436084614D68856380
:1038F000026230BD002C014030B5056A25F48075A8
:103900000562026A4368C46924F0700424F0030469
:103910000D682C4322F400728D6842EA05220F4D97
:10392000A84207D100BF22F40062CD6842EA052216
:1039300022F48062094DA84209D123F4805323F474
:1039400000534D6943EA05138D6943EA051343604B
:10395000C4614D68C563026230BD0000002C0140A7
:1039600030B5056A25F480550562036A4468C2696A
:1039700022F4E04222F440720D6842EA052223F468
:1039800000538D6843EA0533064DA84204D124F460
:1039900080444D6944EA85144460C2614D68056401
:1039A000036230BD002C014030B50B461446026A5C
:1039B000056A25F001050562816921F0F00141EAFF
:1039C000041122F00A021A438161026230BD30B54F
:1039D0000B461446056A25F0100505628169026AE6
:1039E00021F4704141EA043122F0A00242EA0312BC
:1039F0008161026230BD000070B50446216809692A
:103A000021F44051E2681143226811612269A168E2
:103A10001143626941EA02052168C96841F20C62FA
:103A2000914329432268D1602168496921F440719A
:103A3000A2691143226851612D4A2168914202D145
:103A4000FDF77AFF01E0FDF767FF00EBC00101EB36
:103A5000001162689200B1FBF2F100EBC00202EBD0
:103A6000001263689B00B2FBF3F26423B2FBF3F233
:103A700002EBC20303EB0212A1EB8201322202EB42
:103A800001116422B1FBF2F101F0F00100EBC00280
:103A900002EB001263689B00B2FBF3F26423B2FBFB
:103AA000F3F201EB021200EBC00101EB00116368BD
:103AB0009B00B1FBF3F100EBC00303EB001366685E
:103AC000B600B3FBF6F36426B3FBF6F303EBC306D1
:103AD00006EB0313A1EB8301322303EB01116423F3
:103AE000B1FBF3F101F00F0111442268916070BD48
:103AF0000038014002460020D2F8B83283F8500066
:103B0000704770B504460E46D4F8B85269782878E4
:103B1000D4F8BC32DA68904740232A460121204677
:103B200000F076FD002070BD70B504460D46812181
:103B3000204600F018FC0021E1620121204600F03F
:103B400012FC0021C4F86C11D4F8B80250B1D4F8BA
:103B5000BC1288688047D4F8B80201F0DEF8002073
:103B6000C4F8B802002070BD70B50546D5F8B8425B
:103B7000E06C012807D161782078D5F8BC32DA688A
:103B800090470020E064002070BD000001460A203C
:103B90000880014870470000840100200146292068
:103BA0000880014870470000F400002001462920E9
:103BB00008800148704700002001002001462920AC
:103BC00008800148704700004C0100202DE9F041B9
:103BD00004460F460026022303228121204600F0DE
:103BE000FFFC0121E16202230322204600F0F8FCE1
:103BF0000121C4F86C11542001F090F8C4F8B80207
:103C0000D4F8B80208B901260EE0D4F8B852002062
:103C100085F85000D4F8BC124868804740232A46F3
:103C20000121204600F0F4FC3046BDE8F081024658
:103C3000022011B1C2F8BC12002070472DE9F843F0
:103C400006460C46D6F8B8520027B8460020009029
:103C50008146207800F0600090B3202870D1607811
:103C6000801E0A2823D2DFE800F013082222222235
:103C7000221A0F05A078286420E0012205F14001F6
:103C8000304600F004F919E060880012686415E01D
:103C9000012205F14401304600F0F9F80EE0012060
:103CA000E864E2882946304600F0D0F806E0214674
:103CB000304600F0BFF84FF0020900BF00BF70E0CF
:103CC000FFE7607830B1062815D00A2839D00B28D4
:103CD00057D148E096F89C02032805D10222694694
:103CE000304600F0D4F805E02146304600F0A2F856
:103CF0004FF002094CE060882221B1EB202F0BD15C
:103D0000E088262801DD262000E0E0880746D6F876
:103D1000BC02D0F800800DE060882121B1EB202F9B
:103D200008D1DFF88880E088092801D9092000E05F
:103D3000E08807463A464146304600F0A8F827E0BA
:103D400028E096F89C02032806D1012205F14801DB
:103D5000304600F09CF805E02146304600F06AF855
:103D60004FF0020914E096F89C02032802D1A078D3
:103D7000A86405E02146304600F05CF84FF00209E7
:103D800006E02146304600F055F84FF0020900BF2A
:103D900000BF06E02146304600F04CF84FF0020923
:103DA00000BF00BF4846BDE8F8830000780100204E
:103DB00070B504460D46D4F8B40229464268204640
:103DC0009047002070BD70B504460D4694F89C02E3
:103DD000012804D0022803D003280CD101E000BF41
:103DE00000BF6888012805D10020C4F8A40220463D
:103DF00000F05EF804E02946204600F01BF800BF02
:103E000000BF70BD70B506460C4615462B462246CF
:103E10000021304600F0FCFB002070BD70B5064666
:103E20000C4615462B4622460021304600F0CCFCBD
:103E3000002070BD70B504460D468021204600F07C
:103E400097FC0021204600F093FC70BD70B504463D
:103E50000E4615460320C4F894024FF4AE70055187
:103E6000001D05512B4632460021204600F0D0FBB4
:103E7000002070BD10B504460520C4F8940200234C
:103E80001A461946204600F0C3FB002010BD70B54D
:103E900004460E4615460220C4F89402E5612562E8
:103EA0002B4632460021204600F08EFC002070BDDB
:103EB00010B504460420C4F8940200231A4619469B
:103EC000204600F081FC002010BD000070B50546C2
:103ED0000C462DB92246064906A000F0D9F904E0A7
:103EE0002246034903A000F0D3F9014870BD000049
:103EF0002C0900206D61696E20636F6E66696775BD
:103F0000726174696F6E00000246122008800148D9
:103F1000704700003C00002070B505460C462DB9E6
:103F20002246064906A000F0B3F904E02246034900
:103F300003A000F0ADF9014870BD00002C0900207D
:103F40006D61696E20696E746572666163650000FB
:103F500002460420088001487047000050000020FD
:103F600070B505460C462246024903A000F090F9C0
:103F7000004870BD2C0900206C696265747420646F
:103F80006F6C6C730000000070B505460C462DB9CF
:103F90002246064906A000F07BF904E022460349C8
:103FA00003A000F075F9014870BD00002C09002045
:103FB00068616C796176696E6F20626F617264000E
:103FC00070B505460C461A202080FCF779FA0148A6
:103FD00070BD00005400002070B504460D46E8880E
:103FE000012804D029462046FFF724FF1EE094F85C
:103FF0009C02012804D0022803D0032810D109E034
:1040000000BF0020A060012204F108012046FFF754
:104010003EFF0AE00122211D2046FFF738FF04E0A1
:1040200029462046FFF706FF00BF00BF70BDF8B568
:1040300004460E46002000900027002570880012DC
:10404000082875D2DFE800F0C7040C20C7C7A5B563
:10405000207CD4F8B0120A68694690470746C1E050
:10406000207C40B9D4F8B402816A68468847074684
:104070000220787007E0D4F8B402C16A6846884725
:10408000074602207870ADE0B078062878D2DFE8E5
:1040900000F00316293C5063D4F8B002406838B1F0
:1040A000207CD4F8B0124A6869469047074605E07C
:1040B00031462046FFF7BEFE681CC5B267E0D4F863
:1040C000B002806838B1207CD4F8B0128A686946A2
:1040D0009047074605E031462046FFF7ABFE681CD7
:1040E000C5B254E0D4F8B002C06838B1207CD4F82E
:1040F000B012CA6869469047074605E03146204637
:10410000FFF798FE681CC5B241E0D4F8B002006920
:1041100038B1207CD4F8B0120A6969469047074646
:1041200005E031462046FFF785FE681CC5B22EE04B
:1041300051E0D4F8B002406938B1207CD4F8B01214
:104140004A6969469047074605E031462046FFF731
:1041500071FE681CC5B21AE0D4F8B002806940B1A3
:10416000207CD4F8B0128A6969469047074606E079
:1041700006E031462046FFF75DFE681CC5B206E04A
:1041800031462046FFF756FE681CC5B200BF00BF8F
:1041900028E0207C30B9D4F8B402416B68468847E7
:1041A000074605E031462046FFF744FE681CC5B2CD
:1041B00018E0207C40B9D4F8B402016B6846884707
:1041C00007460720787005E031462046FFF732FEAB
:1041D000681CC5B206E031462046FFF72BFE681C7E
:1041E000C5B200BF00BF05B1F8BDBDF8000088B181
:1041F000F08878B1F088BDF80010884202DDBDF883
:10420000000000E0F0880090BDF80020394620460C
:10421000FFF73DFEF08810B92046FFF749FE00BFCA
:10422000E2E70146002002E0421CD0B2491C0A78B5
:10423000002AF9D1704770B504460D4694F89C02E7
:10424000012804D0022803D003281AD101E000BFBE
:1042500000BFE888022804D029462046FFF7EAFD7F
:1042600014E00120E060D4F8A40218B1E06840F046
:104270000200E060022204F10C012046FFF707FE75
:1042800004E029462046FFF7D5FD00BF00BF70BD02
:104290002DE9F04104460D4617460026FCB12046A4
:1042A000FFF7BFFF022101EB400038803A7830462B
:1042B000711CCEB22A5403223046711CCEB22A544D
:1042C0000AE014F8012B3046711CCEB22A540022A9
:1042D0003046711CCEB22A5420780028F1D1BDE8B6
:1042E000F0810146002031B1012906D0022906D013
:1042F000032908D105E0002007E0022005E00120A5
:1043000003E0022001E0022000BF00BF704770B54B
:1043100004460D4616460CB9022070BDD4F8B4020E
:1043200010B10020C4F8B4020DB1C4F8B05201209D
:1043300084F89C022670204600F0FCF80020ECE790
:104340002DE9F04104460D46002600272946D4F801
:10435000C002FCF7C9FB06463046FFF7C2FF07461E
:104360003846BDE8F0812DE9F04104460D460026AF
:1043700000272946D4F8C002FCF781FB06463046E8
:10438000FFF7AFFF07463846BDE8F0812DE9F04161
:1043900004460E461746002E64D104F11405D4F8E5
:1043A0009402022848D1D5E90301884210D9D5E901
:1043B0000301401AE860A88982B239462046FFF717
:1043C0002DFD00231A461946204600F021F93EE053
:1043D0002969A868B0FBF1F201FB1200B8B929699C
:1043E000A868884213D3A868D4F8981288420ED2DD
:1043F000002211462046FFF711FD0020C4F8980264
:1044000000231A461946204600F002F91FE0D4F8AE
:10441000B402C06840B194F89C02032804D1D4F8D7
:10442000B402C168204688478021204600F0A0F9E8
:104430002046FFF71FFD0AE0D4F89402042802D0BA
:10444000D4F8940218B98021204600F091F994F82C
:10445000A002012818D1204600F0EAF9002084F8D3
:10446000A00211E0D4F8B402406950B194F89C0263
:10447000032806D1D4F8B402314642692046904759
:1044800002E00220BDE8F0810020FBE72DE9F041C9
:1044900004460E461746BEBB04F5AA75D4F894022E
:1044A000032825D1D5E90301884210D9D5E90301B4
:1044B000401AE860D5E90301884201D2E86800E0CB
:1044C000286982B239462046FFF79CFC2FE0D4F8D9
:1044D000B402006940B194F89C02032804D1D4F8D6
:1044E000B4020169204688472046FFF7E1FC1EE040
:1044F000D4F8940205281AD10020C4F894020021AF
:10450000204600F035F912E0FFE7D4F8B4028069E4
:1045100050B194F89C02032806D1D4F8B402314675
:1045200082692046904702E00220BDE8F081002029
:10453000FBE7000010B504461948C0F8E842C4F88B
:10454000C002184816490860082048600221144833
:10455000816000218161C1610162FCF736FF08B111
:10456000FBF779FF182300221146D4F8C002FCF7AC
:1045700043FA582300228021D4F8C002FCF73CFA09
:10458000982300228121D4F8C002FCF735FAD82301
:1045900000220121D4F8C002FCF72EFA002010BD41
:1045A000E8050020005C004010B50246D2F8C03299
:1045B00001F08000802809D101F07F0000EB800429
:1045C00003F1280000EBC400807810BD01F07F00EB
:1045D00000EB800403F5B47000EBC4008078F4E7CE
:1045E0002DE9F04704460F4615461E464FF00008D9
:1045F000C1462B4632463946D4F8C002FCF719FDB5
:1046000080464046FFF76DFE81464846BDE8F0878C
:104610002DE9F04704460D4616461F464FF00008A8
:10462000C1463B4632462946D4F8C002FCF747FD56
:1046300080464046FFF755FE81464846BDE8F08774
:1046400010B504464023002211462046FFF7C8FF5C
:1046500001214FF4AC70015140214FF4B27001516F
:104660004023002280212046FFF7BAFF0121A161EB
:1046700040216162012084F89C020020C4F8940269
:104680006060C4F8A402D4F8B80228B12179D4F843
:10469000B402426820469047002010BD014691F8C0
:1046A0009C02042803D191F89D0281F89C0200200D
:1046B000704710B5044694F89C02032808D1D4F83A
:1046C000B402C06920B1D4F8B402C1692046884759
:1046D000002010BD02461174002070472DE9F04102
:1046E00004460D46002600272946D4F8C002FCF7F0
:1046F0005BFF06463046FFF7F4FD07463846BDE847
:10470000F08170B504460D46294604F52A7000F084
:1047100073F80120C4F8940240F2AE20005BC4F8A4
:10472000980294F8A80200F01F0020B1012808D0D8
:10473000022812D10BE004F52A71204600F041F95D
:1047400013E004F52A71204600F0A8FA0DE004F504
:104750002A71204600F086F907E094F8A80200F0DC
:104760008001204600F004F800BF00BF002070BDAB
:104770002DE9F04104460D46002600272946D4F8CD
:10478000C002FCF7C2FC06463046FFF7AAFD07460A
:104790003846BDE8F08170B5044600250026D4F8FF
:1047A000C002FCF725FF05462846FFF79AFD06469E
:1047B000304670BD014691F89C0281F89D020420AC
:1047C00081F89C02002070472DE9F04704460D4611
:1047D00016461F464FF00008C1463B463246294662
:1047E000D4F8C002FCF7D5FC80464046FFF779FDBF
:1047F00081464846BDE8F0870A7802704A784270E0
:104800008B78CA7803EB022242800B794A7903EB5A
:10481000022282808B79CA7903EB0222C280704720
:104820000246002011B1C2F8B41200E00220704725
:1048300001460020704770B504460D46A88810BB9D
:10484000E88800BB688880281DD2A87800F07F0621
:1048500094F89C02032804D129462046FFF7EAFA7F
:1048600015E084F89E6231462046FFF737FF204668
:10487000FFF71EFB1EB1022084F89C0207E0012016
:1048800084F89C0203E029462046FFF7D3FA70BD66
:1048900070B504460D460226D4F8B40238B1D4F8F7
:1048A000B402294602682046904700B900263046E7
:1048B00070BD000070B504460D46A87836490870F2
:1048C00008460078012804DD29462046FFF7B2FAA1
:1048D00060E094F89C02022802D003284FD11CE02B
:1048E0002D480078A8B12C4800786060032084F837
:1048F0009C02294801782046FFF7CAFF022804D10C
:1049000029462046FFF796FA70BD2046FFF7D0FAF9
:1049100002E02046FFF7CCFA3BE01F48007870B970
:10492000022084F89C021C48007860601A480178D4
:104930002046FFF73DFA2046FFF7BAFA1EE0164977
:1049400009786068884216D021792046FFF730FA4E
:10495000114800786060104801782046FFF798FF02
:10496000022804D129462046FFF764FACCE7204606
:10497000FFF79EFA02E02046FFF79AFA09E029467F
:104980002046FFF757FA044801782046FFF710FA4F
:1049900000BF00BF00BFB7E7B800002070B50546F4
:1049A0000C466088012804D1C5F8A4022846FFF708
:1049B0007FFA70BD10B504462046FFF7ECFE0020DC
:1049C00010BD70B505460C460026207800F060004A
:1049D00060B1202802D040283CD100E000BFD5F8CB
:1049E000B402214682682846904738E060780A2859
:1049F00029D2DFE800F01923281E280A0528140F01
:104A000021462846FFF713FB22E021462846FFF700
:104A100012FF1DE021462846FFF74CFF18E0214613
:104A20002846FFF7D9FA13E021462846FFF703FC92
:104A30000EE021462846FFF7B1FF09E0214628464F
:104A4000FFF7C1F904E021462846FFF7F3F900BF5C
:104A500000BF04E021462846FFF7ECF900BF00BF85
:104A6000304670BD2DE9F04105460E464FF0000876
:104A70003479307800F0600060B1202802D04028FE
:104A800071D100E000BFD5F8B402314682682846F3
:104A9000904700E1307800F06000202809D1D5F877
:104AA000B402314682682846904780464046BDE8B9
:104AB000F081707800285ED001282FD0032876D1AD
:104AC00095F89C02022802D0032820D110E054B1AE
:104AD000802C08D021462846FFF74AFE8021284630
:104AE000FFF746FE03E031462846FFF7A3F913E03F
:104AF000708840B93CB1802C05D0F08818B92146A7
:104B00002846FFF735FE2846FFF7D2F904E0314684
:104B10002846FFF78FF900BF00BFB5E095F89C026B
:104B2000022802D003281FD110E054B1802C08D0F5
:104B300021462846FFF71CFE80212846FFF718FE75
:104B400003E031462846FFF775F912E0708848B94E
:104B500004F07F0018B121462846FFF7F1FB2846F4
:104B6000FFF7A6F905E091E031462846FFF762F924
:104B700000BF00BF88E095F89C02022802D00328FD
:104B800076D126E034B1802C04D031462846FFF798
:104B900051F972E004F08000802809D104F07F0010
:104BA00000EB800105F1140000EB810008E066E0F5
:104BB00004F07F0000EB800105F5AA7000EB810096
:104BC000074600203860022239462846FFF75FF981
:104BD00053E004F0800080280ED104F00F0000EBB9
:104BE000800105F1140000EB8100406898B931465E
:104BF0002846FFF71FF940E004F00F0000EB8001AA
:104C000005F5AA7000EB8100406820B931462846BE
:104C1000FFF710F931E004F08000802808D104F09B
:104C20007F0000EB800105F1140000EB810007E03C
:104C300004F07F0000EB800105F5AA7000EB810015
:104C400007460CB1802C02D10020386009E02146D3
:104C50002846FFF7A9FC10B10120386001E00020D0
:104C60003860022239462846FFF711F905E0FFE7D0
:104C700031462846FFF7DEF800BF00BF04E03146AA
:104C80002846FFF7D7F800BF00BF04E031462846AA
:104C9000FFF7D0F800BF00BF404608E770B50546F3
:104CA0000C460026207800F0600030B1202802D0A9
:104CB00040282AD100E000BF00BF95F89C020128DF
:104CC00004D0022803D0032818D101E000BF00BFA0
:104CD000207901280DDCD5F8B402214682682846E7
:104CE00090470646E08840B93EB92846FFF7E0F80D
:104CF00003E021462846FFF79DF804E021462846B8
:104D0000FFF798F800BF00BF04E021462846FFF7F0
:104D100091F800BF00BF002070BD704701460148F8
:104D200070470000D4080020F0B50246002608783D
:104D3000400032F8100048F68F1400EA0403C878E7
:104D400030B101280CD0022805D003280BD104E093
:104D500043F4007309E000BF07E043F4C06304E0DC
:104D600043F4806301E0012600BF00BF43F400402C
:104D700040F080000C78640022F8140000BF0C782A
:104D8000640032F8144048F68F752C400D7844EAE0
:104D9000050040F4004444F080040D786D0022F8D2
:104DA000154000BF087B00287ED14878002852D0EB
:104DB00000BF1046B2F8505028440D7800F58067C7
:104DC00007EB0514CD886D106D00258000BF00BF76
:104DD0000C78640032F8140000F040048CB100BF7D
:104DE0000D786D0032F8155048F68F7705EA070404
:104DF00044F4004545F0C0050F787F0022F81750B5
:104E000000BF00BFC878012813D000BF0C78640031
:104E100032F8144048F6BF7504EA050080F020001F
:104E200040F4004444F080040D786D0022F81540F1
:104E30009EE100BF0C78640032F8144048F6BF755C
:104E400004EA050040F4004444F080040D786D004D
:104E500022F815408CE100BF1046B2F850502844AB
:104E60000D78042707EBC50500F5806707EB4504BF
:104E7000CD886D106D00258000BF00BF1546B2F8CB
:104E8000504025440C78062707EBC40405F58067DD
:104E900007EB4404204600BF0F6967B9078848F252
:104EA000FF3C07EA0C0700E057E00780078847F45B
:104EB000004707801EE00F693E2F0DD800BF0F6925
:104EC0007C080F7C07F0010707B1641C4FF6FF77E1
:104ED00007EA842707800DE000BF0F697C090F7C7B
:104EE00007F01F0707B9641E4FF4004747EA8427FD
:104EF000078000BF00BF00BF00BF0C78640032F81D
:104F0000140000F480448CB100BF0D786D0032F8BD
:104F1000155048F68F7705EA070444F4004545F438
:104F200081450F787F0022F8175000BF00BF00BFF7
:104F30000C78640032F814404BF68F7504EA0500D3
:104F400080F4805080F4005040F4004444F0800429
:104F50000D786D0022F815400AE100BF0C7864005E
:104F600032F8144048F68F7504EA050040F4004416
:104F700044F4C0740D786D0022F8154000BF00BFE6
:104F800000BF00BF1046B2F8505028440D7800F51D
:104F9000806707EB05140D896D106D00258000BF3B
:104FA00000BF00BF00BF1046B2F8505028440D7833
:104FB000042707EBC50500F5806707EB45044D891D
:104FC0006D106D00258000BF00BF00BF487800282D
:104FD0005DD100BF0C78640032F8140000F4804406
:104FE0008CB100BF0D786D0032F8155048F68F7700
:104FF00005EA070444F4004545F481450F787F0035
:1050000022F8175000BF00BF00BF0C78640032F8D0
:10501000140000F040048CB100BF0D786D0032F830
:10502000155048F68F7705EA070444F4004545F02B
:10503000C0050F787F0022F8175000BF00BF00BFE7
:105040000C78640032F814404BF68F7504EA0500C2
:1050500080F4805080F4005040F4004444F0800418
:105060000D786D0022F8154000BF00BF0C78640079
:1050700032F8144048F6BF7504EA050040F40044D5
:1050800044F080040D786D0022F8154070E000BFF8
:105090000C78640032F8140000F480448CB100BF36
:1050A0000D786D0032F8155048F68F7705EA070441
:1050B00044F4004545F481450F787F0022F81750ED
:1050C00000BF00BF00BF0C78640032F8140000F08D
:1050D00040048CB100BF0D786D0032F8155048F6D1
:1050E0008F7705EA070444F4004545F0C0050F78C2
:1050F0007F0022F8175000BF00BFC878012813D0E6
:1051000000BF0C78640032F8144048F6BF7504EA1A
:10511000050080F0200040F4004444F080040D7845
:105120006D0022F8154011E000BF0C78640032F8E1
:10513000144048F6BF7504EA050040F4004444F00A
:1051400080040D786D0022F8154000BF00BF0C7878
:10515000640032F814404BF68F7504EA050040F401
:10516000004444F080040D786D0022F8154000BF23
:105170003046F0BD10B50446002010BD30B50246E3
:10518000087B00285BD1487860B300BF0B785B00D8
:1051900032F8130000F040038BB100BF0C786400BC
:1051A00032F8144048F68F7504EA050343F40044CE
:1051B00044F0C0040D786D0022F8154000BF00BF18
:1051C00000BF0B785B0032F8133048F6BF7403EA77
:1051D000040040F4004343F080030C78640022F89C
:1051E000143007E100BF0B785B0032F8130000F4C5
:1051F00080438BB100BF0C78640032F8144048F64D
:105200008F7504EA050343F4004444F481440D78A7
:105210006D0022F8154000BF00BF00BF0B785B0097
:1052200032F813304BF68F7403EA040040F4004365
:1052300043F080030C78640022F81430DAE04878F8
:1052400000286BD100BF0B785B0032F8130000F42C
:1052500080438BB100BF0C78640032F8144048F6EC
:105260008F7504EA050343F4004444F481440D7847
:105270006D0022F8154000BF00BF00BF0B785B0037
:1052800032F8130000F040038BB100BF0C786400CB
:1052900032F8144048F68F7504EA050343F40044DD
:1052A00044F0C0040D786D0022F8154000BF00BF27
:1052B00000BF0B785B0032F8133048F68F7403EAB6
:1052C000040040F4004343F0C0030C78640022F86B
:1052D000143000BF00BF0B785B0032F813304BF680
:1052E0008F7403EA040040F4004343F080030C7819
:1052F000640022F8143000BF00BF0B785B0032F866
:10530000133048F6BF7403EA040040F4004343F04E
:1053100080030C78640022F814306BE000BF0B7837
:105320005B0032F8130000F480438BB100BF0C78AF
:10533000640032F8144048F68F7504EA050343F41C
:10534000004444F481440D786D0022F8154000BFFC
:1053500000BF00BF0B785B0032F8130000F0400381
:105360008BB100BF0C78640032F8144048F68F759A
:1053700004EA050343F4004444F0C0040D786D00D2
:1053800022F8154000BF00BF00BF0B785B0032F869
:10539000133048F68F7403EA040040F4004343F4EA
:1053A00081430C78640022F8143000BF00BF0B78F2
:1053B0005B0032F8133048F6BF7403EA040040F48F
:1053C000004343F080030C78640022F8143000BFDF
:1053D00000BF0B785B0032F813304BF68F7403EA92
:1053E000040040F4004343F080030C78640022F88A
:1053F000143000BF002030BD014600207047014638
:105400000020704710B50446012024F8400F00200A
:105410002080A0802082403C10BD01464FF43F42D6
:10542000B1F840009043A1F84000002070470246C8
:105430000020704730B50246087B002865D14878C7
:1054400088B300BF0B785B0032F8130000F0400314
:105450008BB100BF0C78640032F8144048F68F75A9
:1054600004EA050343F4004444F0C0040D786D00E1
:1054700022F8154000BF00BFC878012845D000BF02
:105480000B785B0032F8133048F6BF7403EA04006F
:1054900080F0200040F4004343F080030C78640067
:1054A00022F8143031E0FFE700BF0B785B0032F8E0
:1054B000130000F480438BB100BF0C78640032F815
:1054C000144048F68F7504EA050343F4004444F49D
:1054D00081440D786D0022F8154000BF00BF00BF69
:1054E0000B785B0032F813304BF68F7403EA04003C
:1054F00080F4805080F4005040F4004343F0800377
:105500000C78640022F8143000BF002030BD10B5C4
:105510000246487898B100BF0B785B0032F8133030
:1055200048F6BF7403EA040080F0100040F4004322
:1055300043F080030C78640022F8143013E000BFBD
:105540000B785B0032F813304BF68F7403EA0400DB
:1055500080F4805040F4004343F080030C786400F2
:1055600022F8143000BF002010BD2DE9F047064698
:105570000C466078012876D12169A069884201D95A
:10558000256900E0A569207BA0B9ABB2E28830466E
:10559000616900F02EFD00BF3046B6F8502010447F
:1055A0002278022303EBC20200F5806303EB420181
:1055B0000D80BBE2E07802287DD12169206A884213
:1055C0007AD900BF2178490036F8111048F68F7259
:1055D00001EA020040F4004141F4C0712278520017
:1055E00026F8121000BF206A401B2062207840007D
:1055F00036F8100000F0400000287DD000BF334690
:10560000607888BB00BF3246B6F850100A44217853
:105610004FF0060909EBC10102F5806909EB410170
:10562000084600BF75B9B0F8009048F2FF3A09EAA1
:105630000A09A0F80090B0F8009049F40049A0F8D9
:10564000009021E03E2D10D800BF690805F0010947
:10565000B9F1000F00D0491C4FF6FF7909EA812902
:10566000A0F8009010E077E210E000BF690905F0B3
:105670001F09B9F1000F00D1491E4FF4004949EA52
:105680008129A0F8009000BF00BF0FE060780128DA
:105690000CD1B6F8500003442078062101EBC0007D
:1056A00003F5806101EB400CACF8005000BF678946
:1056B000ABB23A4601E057E12CE13046616900F0B7
:1056C00098FC6069284460612169206A884203D996
:1056D000206A401B206202E0256A0020206200BF91
:1056E0006078C0BB00BF3246B6F850100A4421783B
:1056F000022303EBC10100E049E002F5806303EB04
:105700004101084600BF55B9038848F2FF3C03EA4F
:105710000C030380038843F40043038019E03E2D0B
:105720000BD800BF690805F0010303B1491C4FF60F
:10573000FF7303EA812303800BE000BF690905F0D2
:105740001F0303B9491E4FF4004343EA812303803A
:1057500000BF00BF12E0FFE7607801280ED100BF54
:105760003046B6F8502010442278022303EBC202E0
:1057700000F5806303EB42010D8000BF00BF278965
:10578000ABB23A463046616900F033FCCEE100BF6F
:105790006078B0BB00BF3246B6F850100A4421789A
:1057A000022303EBC10102F5806303EB41010846CC
:1057B00000BF55B9038848F2FF3C03EA0C0303809D
:1057C000038843F40043038019E03E2D0BD800BF4B
:1057D000690805F0010303B1491C4FF6FF7303EAA2
:1057E000812303800BE000BF690905F01F0303B9A3
:1057F000491E4FF4004343EA8123038000BF00BFEA
:1058000012E0FFE7607801280ED100BF3046B6F8FD
:10581000502010442278022303EBC20200F580637B
:1058200003EB42010D8000BF00BF2789ABB23A46AF
:105830003046616900F0DDFB6069284460612169E0
:10584000206A884203D9206A401B206202E0256A50
:105850000020206200BF3346607880BB00BF324624
:10586000B6F850100A4421784FF0060909EBC1013F
:1058700002F5806909EB4101084600BF75B9B0F82F
:10588000009048F2FF3A09EA0A09A0F80090B0F83F
:10589000009049F40049A0F8009020E03E2D0FD878
:1058A00000BF690805F00109B9F1000F00D0491CDB
:1058B0004FF6FF7909EA8129A0F800900FE010E087
:1058C00000BF690905F01F09B9F1000F00D1491E99
:1058D0004FF4004949EA8129A0F8009000BF00BFB9
:1058E0000FE0607801280CD1B6F85000034420780E
:1058F000062101EBC00003F5806101EB400CACF820
:10590000005000BF6789ABB23A463046616900F08B
:1059100070FB0BE1256A00BF2178490036F81110B1
:1059200048F68F6201EA020040F4004141F0800134
:105930002278520026F8121000BF00BF3046B6F899
:10594000502010442278022303EBC20200F580634A
:1059500003EB42010D8000BF2789ABB23A463046C7
:10596000616900F046FBE1E02078400036F8100065
:1059700000F04000A0B300BF3346607888BB00BF92
:105980003246B6F850100A4421784FF0060909EB68
:10599000C10102F5806909EB4101084600BF75B9F4
:1059A000B0F8009048F2FF3A09EA0A09A0F800901E
:1059B000B0F8009049F40049A0F8009021E03E2D95
:1059C00010D800BF690805F00109B9F1000F00D037
:1059D000491C4FF6FF7909EA8129A0F8009010E0F0
:1059E00024E010E000BF690905F01F09B9F1000FBC
:1059F00000D1491E4FF4004949EA8129A0F80090DE
:105A000000BF00BF0FE0607801280CD1B6F850004D
:105A100003442078062101EBC00003F5806101EB0F
:105A2000400CACF8005000BF67894EE000BF6078C2
:105A3000B0BB00BF3246B6F850100A4421780223AA
:105A400003EBC10102F5806303EB4101084600BF8F
:105A500055B9038848F2FF3C03EA0C03038003882E
:105A600043F40043038019E03E2D0BD800BF6908C2
:105A700005F0010303B1491C4FF6FF7303EA8123CC
:105A800003800BE000BF690905F01F0303B9491E3D
:105A90004FF4004343EA8123038000BF00BF12E0BC
:105AA000FFE7607801280ED100BF3046B6F85020DD
:105AB00010442278022303EBC20200F5806303EB5B
:105AC00042010D8000BF00BF2789ABB23A46304685
:105AD000616900F08EFA00BF607888B900BF217854
